{
  "contractName": "CertificateIssuer",
  "abi": [
    {
      "inputs": [],
      "stateMutability": "nonpayable",
      "type": "constructor"
    },
    {
      "anonymous": false,
      "inputs": [
        {
          "indexed": true,
          "internalType": "address",
          "name": "studentAddress",
          "type": "address"
        },
        {
          "indexed": false,
          "internalType": "string",
          "name": "studentName",
          "type": "string"
        },
        {
          "indexed": false,
          "internalType": "string",
          "name": "courseCompleted",
          "type": "string"
        },
        {
          "indexed": false,
          "internalType": "string",
          "name": "certificateURL",
          "type": "string"
        },
        {
          "indexed": false,
          "internalType": "uint256",
          "name": "issueDate",
          "type": "uint256"
        }
      ],
      "name": "CertificateIssued",
      "type": "event"
    },
    {
      "anonymous": false,
      "inputs": [
        {
          "indexed": true,
          "internalType": "address",
          "name": "studentAddress",
          "type": "address"
        },
        {
          "indexed": false,
          "internalType": "uint256",
          "name": "certificateIndex",
          "type": "uint256"
        }
      ],
      "name": "CertificateVerified",
      "type": "event"
    },
    {
      "inputs": [
        {
          "internalType": "address",
          "name": "",
          "type": "address"
        },
        {
          "internalType": "uint256",
          "name": "",
          "type": "uint256"
        }
      ],
      "name": "certificates",
      "outputs": [
        {
          "internalType": "address",
          "name": "studentAddress",
          "type": "address"
        },
        {
          "internalType": "string",
          "name": "studentName",
          "type": "string"
        },
        {
          "internalType": "string",
          "name": "courseCompleted",
          "type": "string"
        },
        {
          "internalType": "uint256",
          "name": "issueDate",
          "type": "uint256"
        },
        {
          "internalType": "string",
          "name": "certificateURL",
          "type": "string"
        },
        {
          "internalType": "bool",
          "name": "isVerified",
          "type": "bool"
        }
      ],
      "stateMutability": "view",
      "type": "function",
      "constant": true
    },
    {
      "inputs": [],
      "name": "schoolAdmin",
      "outputs": [
        {
          "internalType": "address",
          "name": "",
          "type": "address"
        }
      ],
      "stateMutability": "view",
      "type": "function",
      "constant": true
    },
    {
      "inputs": [
        {
          "internalType": "address",
          "name": "studentAddress",
          "type": "address"
        },
        {
          "internalType": "string",
          "name": "studentName",
          "type": "string"
        },
        {
          "internalType": "string",
          "name": "courseCompleted",
          "type": "string"
        },
        {
          "internalType": "string",
          "name": "certificateURL",
          "type": "string"
        }
      ],
      "name": "issueCertificate",
      "outputs": [],
      "stateMutability": "nonpayable",
      "type": "function"
    },
    {
      "inputs": [
        {
          "internalType": "address",
          "name": "studentAddress",
          "type": "address"
        },
        {
          "internalType": "uint256",
          "name": "certificateIndex",
          "type": "uint256"
        }
      ],
      "name": "verifyCertificate",
      "outputs": [],
      "stateMutability": "nonpayable",
      "type": "function"
    },
    {
      "inputs": [
        {
          "internalType": "address",
          "name": "studentAddress",
          "type": "address"
        }
      ],
      "name": "getTotalCertificates",
      "outputs": [
        {
          "internalType": "uint256",
          "name": "",
          "type": "uint256"
        }
      ],
      "stateMutability": "view",
      "type": "function",
      "constant": true
    }
  ],
  "bytecode": "0x608060405234801561001057600080fd5b50336000806101000a81548173ffffffffffffffffffffffffffffffffffffffff021916908373ffffffffffffffffffffffffffffffffffffffff160217905550611171806100606000396000f3fe608060405234801561001057600080fd5b50600436106100575760003560e01c806346f3141c1461005c5780635d49111a146100915780638eb933ac146100af578063d9af3691146100cb578063e3e197f5146100e7575b600080fd5b61007660048036038101906100719190610898565b610117565b604051610088969594939291906109a1565b60405180910390f35b610099610335565b6040516100a69190610a17565b60405180910390f35b6100c960048036038101906100c49190610b67565b610359565b005b6100e560048036038101906100e09190610898565b6105a4565b005b61010160048036038101906100fc9190610c22565b6107a4565b60405161010e9190610c4f565b60405180910390f35b6001602052816000526040600020818154811061013357600080fd5b9060005260206000209060060201600091509150508060000160009054906101000a900473ffffffffffffffffffffffffffffffffffffffff169080600101805461017d90610c99565b80601f01602080910402602001604051908101604052809291908181526020018280546101a990610c99565b80156101f65780601f106101cb576101008083540402835291602001916101f6565b820191906000526020600020905b8154815290600101906020018083116101d957829003601f168201915b50505050509080600201805461020b90610c99565b80601f016020809104026020016040519081016040528092919081815260200182805461023790610c99565b80156102845780601f1061025957610100808354040283529160200191610284565b820191906000526020600020905b81548152906001019060200180831161026757829003601f168201915b50505050509080600301549080600401805461029f90610c99565b80601f01602080910402602001604051908101604052809291908181526020018280546102cb90610c99565b80156103185780601f106102ed57610100808354040283529160200191610318565b820191906000526020600020905b8154815290600101906020018083116102fb57829003601f168201915b5050505050908060050160009054906101000a900460ff16905086565b60008054906101000a900473ffffffffffffffffffffffffffffffffffffffff1681565b60008054906101000a900473ffffffffffffffffffffffffffffffffffffffff1673ffffffffffffffffffffffffffffffffffffffff163373ffffffffffffffffffffffffffffffffffffffff16146103e7576040517f08c379a00000000000000000000000000000000000000000000000000000000081526004016103de90610d3c565b60405180910390fd5b600160008573ffffffffffffffffffffffffffffffffffffffff1673ffffffffffffffffffffffffffffffffffffffff1681526020019081526020016000206040518060c001604052808673ffffffffffffffffffffffffffffffffffffffff16815260200185815260200184815260200142815260200183815260200160001515815250908060018154018082558091505060019003906000526020600020906006020160009091909190915060008201518160000160006101000a81548173ffffffffffffffffffffffffffffffffffffffff021916908373ffffffffffffffffffffffffffffffffffffffff16021790555060208201518160010190816104f19190610f08565b5060408201518160020190816105079190610f08565b506060820151816003015560808201518160040190816105279190610f08565b5060a08201518160050160006101000a81548160ff02191690831515021790555050508373ffffffffffffffffffffffffffffffffffffffff167f61f81fcd7d5ae36d0818d975b8fe3180525a33a3c46e4d22e3abce3b6e088c6b848484426040516105969493929190610fda565b60405180910390a250505050565b600160008373ffffffffffffffffffffffffffffffffffffffff1673ffffffffffffffffffffffffffffffffffffffff168152602001908152602001600020805490508110610628576040517f08c379a000000000000000000000000000000000000000000000000000000000815260040161061f90611080565b60405180910390fd5b600160008373ffffffffffffffffffffffffffffffffffffffff1673ffffffffffffffffffffffffffffffffffffffff1681526020019081526020016000208181548110610679576106786110a0565b5b906000526020600020906006020160050160009054906101000a900460ff16156106d8576040517f08c379a00000000000000000000000000000000000000000000000000000000081526004016106cf9061111b565b60405180910390fd5b60018060008473ffffffffffffffffffffffffffffffffffffffff1673ffffffffffffffffffffffffffffffffffffffff168152602001908152602001600020828154811061072a576107296110a0565b5b906000526020600020906006020160050160006101000a81548160ff0219169083151502179055508173ffffffffffffffffffffffffffffffffffffffff167f2105e2cd4cf17e4dce9aec1d8c9c9e33662447400f2effe07ac1a9a7d38885a7826040516107989190610c4f565b60405180910390a25050565b6000600160008373ffffffffffffffffffffffffffffffffffffffff1673ffffffffffffffffffffffffffffffffffffffff168152602001908152602001600020805490509050919050565b6000604051905090565b600080fd5b600080fd5b600073ffffffffffffffffffffffffffffffffffffffff82169050919050565b600061082f82610804565b9050919050565b61083f81610824565b811461084a57600080fd5b50565b60008135905061085c81610836565b92915050565b6000819050919050565b61087581610862565b811461088057600080fd5b50565b6000813590506108928161086c565b92915050565b600080604083850312156108af576108ae6107fa565b5b60006108bd8582860161084d565b92505060206108ce85828601610883565b9150509250929050565b6108e181610824565b82525050565b600081519050919050565b600082825260208201905092915050565b60005b83811015610921578082015181840152602081019050610906565b60008484015250505050565b6000601f19601f8301169050919050565b6000610949826108e7565b61095381856108f2565b9350610963818560208601610903565b61096c8161092d565b840191505092915050565b61098081610862565b82525050565b60008115159050919050565b61099b81610986565b82525050565b600060c0820190506109b660008301896108d8565b81810360208301526109c8818861093e565b905081810360408301526109dc818761093e565b90506109eb6060830186610977565b81810360808301526109fd818561093e565b9050610a0c60a0830184610992565b979650505050505050565b6000602082019050610a2c60008301846108d8565b92915050565b600080fd5b600080fd5b7f4e487b7100000000000000000000000000000000000000000000000000000000600052604160045260246000fd5b610a748261092d565b810181811067ffffffffffffffff82111715610a9357610a92610a3c565b5b80604052505050565b6000610aa66107f0565b9050610ab28282610a6b565b919050565b600067ffffffffffffffff821115610ad257610ad1610a3c565b5b610adb8261092d565b9050602081019050919050565b82818337600083830152505050565b6000610b0a610b0584610ab7565b610a9c565b905082815260208101848484011115610b2657610b25610a37565b5b610b31848285610ae8565b509392505050565b600082601f830112610b4e57610b4d610a32565b5b8135610b5e848260208601610af7565b91505092915050565b60008060008060808587031215610b8157610b806107fa565b5b6000610b8f8782880161084d565b945050602085013567ffffffffffffffff811115610bb057610baf6107ff565b5b610bbc87828801610b39565b935050604085013567ffffffffffffffff811115610bdd57610bdc6107ff565b5b610be987828801610b39565b925050606085013567ffffffffffffffff811115610c0a57610c096107ff565b5b610c1687828801610b39565b91505092959194509250565b600060208284031215610c3857610c376107fa565b5b6000610c468482850161084d565b91505092915050565b6000602082019050610c646000830184610977565b92915050565b7f4e487b7100000000000000000000000000000000000000000000000000000000600052602260045260246000fd5b60006002820490506001821680610cb157607f821691505b602082108103610cc457610cc3610c6a565b5b50919050565b7f4f6e6c7920746865207363686f6f6c2061646d696e2063616e2063616c6c207460008201527f6869732066756e6374696f6e0000000000000000000000000000000000000000602082015250565b6000610d26602c836108f2565b9150610d3182610cca565b604082019050919050565b60006020820190508181036000830152610d5581610d19565b9050919050565b60008190508160005260206000209050919050565b60006020601f8301049050919050565b600082821b905092915050565b600060088302610dbe7fffffffffffffffffffffffffffffffffffffffffffffffffffffffffffffffff82610d81565b610dc88683610d81565b95508019841693508086168417925050509392505050565b6000819050919050565b6000610e05610e00610dfb84610862565b610de0565b610862565b9050919050565b6000819050919050565b610e1f83610dea565b610e33610e2b82610e0c565b848454610d8e565b825550505050565b600090565b610e48610e3b565b610e53818484610e16565b505050565b5b81811015610e7757610e6c600082610e40565b600181019050610e59565b5050565b601f821115610ebc57610e8d81610d5c565b610e9684610d71565b81016020851015610ea5578190505b610eb9610eb185610d71565b830182610e58565b50505b505050565b600082821c905092915050565b6000610edf60001984600802610ec1565b1980831691505092915050565b6000610ef88383610ece565b9150826002028217905092915050565b610f11826108e7565b67ffffffffffffffff811115610f2a57610f29610a3c565b5b610f348254610c99565b610f3f828285610e7b565b600060209050601f831160018114610f725760008415610f60578287015190505b610f6a8582610eec565b865550610fd2565b601f198416610f8086610d5c565b60005b82811015610fa857848901518255600182019150602085019450602081019050610f83565b86831015610fc55784890151610fc1601f891682610ece565b8355505b6001600288020188555050505b505050505050565b60006080820190508181036000830152610ff4818761093e565b90508181036020830152611008818661093e565b9050818103604083015261101c818561093e565b905061102b6060830184610977565b95945050505050565b7f436572746966696361746520696e646578206f7574206f6620626f756e647300600082015250565b600061106a601f836108f2565b915061107582611034565b602082019050919050565b600060208201905081810360008301526110998161105d565b9050919050565b7f4e487b7100000000000000000000000000000000000000000000000000000000600052603260045260246000fd5b7f436572746966696361746520616c726561647920766572696669656400000000600082015250565b6000611105601c836108f2565b9150611110826110cf565b602082019050919050565b60006020820190508181036000830152611134816110f8565b905091905056fea2646970667358221220ff47f5f534dbff593093e092657a0a29d6c06054528649a2d6fce32df2c39a6c64736f6c63430008130033",
  "immutableReferences": {},
  "source": "// SPDX-License-Identifier: MIT\r\npragma solidity ^0.8.19;\r\n\r\ncontract CertificateIssuer {\r\n\r\n    // School admin address\r\n    address public schoolAdmin;\r\n\r\n    // Certificate structure\r\n    struct Certificate {\r\n        address studentAddress;\r\n        string studentName;\r\n        string courseCompleted;\r\n        uint256 issueDate;\r\n        string certificateURL;\r\n        bool isVerified;\r\n    }\r\n\r\n    // Array to hold certificates for each student\r\n    mapping(address => Certificate[]) public certificates;\r\n\r\n    // Events\r\n    event CertificateIssued(address indexed studentAddress, string studentName, string courseCompleted, string certificateURL, uint256 issueDate);\r\n    event CertificateVerified(address indexed studentAddress, uint certificateIndex);\r\n\r\n    // Modifier to restrict function access to only the school admin\r\n    modifier onlySchoolAdmin() {\r\n        require(msg.sender == schoolAdmin, \"Only the school admin can call this function\");\r\n        _;\r\n    }\r\n\r\n    // Constructor to set the school admin\r\n    constructor() {\r\n        schoolAdmin = msg.sender;\r\n    }\r\n\r\n    // Function to issue a certificate\r\n    function issueCertificate(address studentAddress, string memory studentName, string memory courseCompleted, string memory certificateURL) public onlySchoolAdmin {\r\n        certificates[studentAddress].push(Certificate({\r\n            studentAddress: studentAddress,\r\n            studentName: studentName,\r\n            courseCompleted: courseCompleted,\r\n            issueDate: block.timestamp,\r\n            certificateURL: certificateURL,\r\n            isVerified: false\r\n        }));\r\n\r\n        emit CertificateIssued(studentAddress, studentName, courseCompleted, certificateURL, block.timestamp);\r\n    }\r\n\r\n    // Function to verify a certificate\r\n    function verifyCertificate(address studentAddress, uint certificateIndex) public {\r\n        require(certificateIndex < certificates[studentAddress].length, \"Certificate index out of bounds\");\r\n        require(!certificates[studentAddress][certificateIndex].isVerified, \"Certificate already verified\");\r\n\r\n        certificates[studentAddress][certificateIndex].isVerified = true;\r\n\r\n        emit CertificateVerified(studentAddress, certificateIndex);\r\n    }\r\n\r\n    // Function to get the total number of certificates for a student\r\n    function getTotalCertificates(address studentAddress) public view returns (uint) {\r\n        return certificates[studentAddress].length;\r\n    }\r\n}\r\n",
  "sourcePath": "/Users/kavindev/Desktop/Blockchainver3/contracts/CertificateIssuer.sol",
  "compiler": {
    "name": "solc",
    "version": "0.8.19+commit.7dd6d404.Emscripten.clang"
  },
  "schemaVersion": "3.4.16",
  "updatedAt": "2024-03-27T10:27:59.563Z",
  "networkType": "ethereum",
  "devdoc": {
    "kind": "dev",
    "methods": {},
    "version": 1
  },
  "userdoc": {
    "kind": "user",
    "methods": {},
    "version": 1
  }
}